:100000000C942A000C9447000C9447000C94470071
:100010000C9447000C9447000C9447000C94470044
:100020000C9447000C9447000C9447000C94470034
:100030000C9447000C9447000C9447000C94470024
:100040000C9447000C9447000C9447000C94470014
:100050000C94470011241FBECFE5D4E0DEBFCDBF16
:1000600010E0A0E6B0E0E0E7F7E002C005900D92F6
:10007000A03DB107D9F720E0A0EDB0E001C01D928E
:10008000A43DB207E1F70E9425010C94B6030C943D
:100090000000CF93DF93EC0166E670E00E94AD03B1
:1000A000892B31F16AE670E0CE010E94AD03892B05
:1000B00009F16EE670E0CE010E94AD03892BE1F0FC
:1000C00061E770E0CE010E94AD03892BB9F065E7CE
:1000D00070E0CE010E94AD03892B91F068E770E0DB
:1000E000CE010E94AD0321E0892B59F020E009C028
:1000F00022E007C024E005C020E003C020E001C0EA
:1001000023E0822FDF91CF910895823071F018F4AF
:10011000813031F019C0833069F0843081F014C02F
:100120009BB381E089278BBB08959BB382E089272D
:100130008BBB08959BB384E089278BBB08959BB349
:1001400088E089278BBB08951BBA0895AF92BF92B0
:10015000CF92DF92EF92FF920F931F93CF93DF9393
:1001600000D000D0CDB7DEB78EE790E09A838983C8
:1001700082E890E09C838B830E94CF0186E890E028
:100180000E94E8018BB380FBAA24A0F8B12CF501F2
:10019000EE0FFF1F81E090E08C0F9D1FE80FF91F0D
:1001A000808191810E94E8018CE890E00E94E80142
:1001B0008BB381FBCC24C0F8D12CF601EE0FFF1FCE
:1001C00081E090E08C0F9D1FE80FF91F80819181E5
:1001D0000E94E80182E990E00E94E8018BB382FB73
:1001E000EE24E0F8F12CF701EE0FFF1F81E090E024
:1001F0008C0F9D1FE80FF91F808191810E94E801FB
:1002000087E990E00E94E8018BB383FB002700F9A7
:1002100010E0F801EE0FFF1F81E090E08C0F9D1FB2
:10022000E80FF91F808191810E94E8010F900F90E3
:100230000F900F90DF91CF911F910F91FF90EF9052
:10024000DF90CF90BF90AF9008951F93CF93DF932F
:100250008FEF8ABB8CE00E94F8018EE990E00E944B
:10026000E8012FEF8FE997E1215080409040E1F7BE
:1002700000C000000E94300210E0812F0E94850023
:100280000E94A6008AE090E00E948602EC0100979E
:1002900059F0BC018AE00E9441020E944900182FD7
:1002A000CE010E941E03E9CF0E94CF018BEA90E0AD
:1002B0000E94E80181E090E0DF91CF911F910895C5
:1002C000C29A00C0C2980895CF93C82F662311F038
:1002D000C09A01C0C098C198BC9ABD9ABE9ABF9AF4
:1002E000C798C698C598C498CC230CF4C79AC6FD85
:1002F000C69AC5FDC59AC4FDC49A0E946001C798FC
:10030000C698C598C498C3FDC79AC2FDC69AC1FDD8
:10031000C59AC0FDC49A0E946001C49AC59AC69A43
:10032000C79ACF910895882311F0C09A01C0C09850
:10033000C19ABC98BD98BE98BF98C29A00C0B499A3
:1003400002C080E001C080E1B5998062B699806406
:10035000B7998068C29800C0C29A00C0B499816001
:10036000B5998260B6998460B7998860C2980895FB
:1003700080E00E9493018823DCF385E090E0019700
:10038000F1F780E00E9493010895CF93C82F0E9457
:10039000B80160E08C2F0E946401CF91089581E044
:1003A0000E94C5010895CF93C82F0E94B801CA309A
:1003B00049F4803410F480E401C080E080580E9449
:1003C000C50104C061E08C2F0E946401CF910895A3
:1003D000CF93DF93EC012196FC018081882329F0E3
:1003E0000E94D30189918111FBCFDF91CF910895B4
:1003F000CF93C82FB89AB99ABA9ABC9ABD9ABE9AA6
:10040000BF9AE0ECFCEA3197F1F7C59AC49A0E94D2
:100410006001E5EEF5E33197F1F70E946001E0EB52
:10042000F0E03197F1F70E946001E0EBF0E03197E6
:10043000F1F7C4980E946001E0EBF0E03197F1F72A
:1004400088E20E94C50188E00E94C5010E94CF0198
:1004500086E00E94C5018C2F0E94C501CF910895AE
:1004600088E18AB986E880BD81E189B908955F9BFA
:1004700003C08CB15F99FDCF08955F9BFECF8CB117
:100480000895EF92FF920F931F93CF93DF93E82E7F
:10049000EB010E943D029FED980F9E35D0F78883B7
:1004A000FF24F3948E010F0D111D0E943D02F801EF
:1004B0008083F394FE1441F0FE01EF0DF11D31979E
:1004C00090819A3079F715C0EF2DF0E03197EC0F5D
:1004D000FD1F80818A3029F410820E943702CE01EC
:1004E0000EC0CE010E941E030E9437028DEB90E0E9
:1004F00006C0EF2DF0E03197EC0FFD1FEDCFDF913F
:10050000CF911F910F91FF90EF900895CF93DF93BC
:100510008230910510F482E090E0E091D200F091F9
:10052000D30020E030E0A0E0B0E0309739F1408126
:10053000518148175907B8F04817590771F482815B
:100540009381109729F013969C938E9312972CC049
:100550009093D3008093D20027C02115310531F04C
:100560004217530718F0A901DB0101C0EF019A01FE
:10057000BD01DF010280F381E02DD7CF21153105C8
:10058000F9F0281B390B2430310580F48A819B81D6
:100590006115710521F0FB019383828304C0909360
:1005A000D3008093D200FE01329644C0FE01E20FD8
:1005B000F31F8193919322503109398328833AC0E4
:1005C0002091D0003091D100232B41F42091620082
:1005D000309163003093D1002093D00020916000CF
:1005E000309161002115310541F42DB73EB740919E
:1005F000640050916500241B350BE091D000F09110
:10060000D100E217F307A0F42E1B3F0B2817390780
:1006100078F0AC014E5F5F4F2417350748F04E0F5E
:100620005F1F5093D1004093D0008193919302C0FB
:10063000E0E0F0E0CF01DF91CF910895CF93DF9319
:10064000009709F487C0FC01329713821282C0918F
:10065000D200D091D300209781F420813181280FDE
:10066000391F8091D0009091D1008217930779F5BE
:10067000F093D100E093D0006DC0DE0120E030E0C7
:10068000AE17BF0750F412964D915C9113979D01E0
:100690004115510509F1DA01F3CFB383A2834081FB
:1006A0005181840F951F8A179B0771F48D919C913E
:1006B0001197840F951F02969183808312968D91D6
:1006C0009C911397938382832115310529F4F0932C
:1006D000D300E093D2003EC0D9011396FC93EE9371
:1006E00012974D915D91A40FB51FEA17FB0779F49E
:1006F00080819181840F951F0296D90111969C9358
:100700008E938281938113969C938E931297E0E04F
:10071000F0E08A819B81009719F0FE01EC01F9CF8E
:10072000CE01029628813981820F931F2091D0003B
:100730003091D1002817390769F4309729F41092C5
:10074000D3001092D20002C013821282D093D10043
:10075000C093D000DF91CF910895FB01DC018D9112
:10076000019080190110D9F3990B0895F894FFCFE7
:100770000000D400200066616E0061636F006D634D
:10078000006D61630074760062756C6231004F46E3
:1007900046004F4E200042554C423D002046414EFF
:1007A0003D000A54563D0020202041433D002020BA
:1007B00020202057656C636F6D650063616E277440
:1007C00020616C6C6F63206D656D210A006C657330
:1007D00073206D656D6F7279206572726F720000A3
:00000001FF
